:1000000012C021C020C01FC01EC01DC01CC01BC00C
:100010001AC019C018C018C016C050C014C013C0F0
:1000200012C011C010C011241FBECFE5D4E0DEBF46
:10003000CDBF12E0A0E6B0E001C01D92A836B10726
:10004000E1F7EBD0ABC6DCCF1F920F920FB60F9249
:1000500011248F939F93EF93FF93809162008823E5
:1000600021F5A8955C9B03C081E0809365005B9BB4
:1000700003C081E0809366005A9B03C081E08093B7
:1000800067009CB180916000843658F4E091600074
:10009000F0E0E959FE4F9083809160008F5F80937C
:1000A000600085B5856085BD14BCFF91EF919F917F
:1000B0008F910F900FBE0F901F9018951F920F9267
:1000C0000FB60F9211242F933F938F939F93AF936B
:1000D000BF93EF93FF93A895929A29E933E0C90162
:1000E0000197F1F780916100882321F15D9BFECF9C
:1000F000809168008CB9A0E0B0E00AC0CD01019603
:10010000FC01E859FF4F2081A859BF4F2C93DC0117
:100110008091610090E0A817B90784F3E091610035
:10012000F0E0E859FF4F1082809161008150809388
:10013000610004C09298C9010197F1F7FF91EF9116
:10014000BF91AF919F918F913F912F910F900FBED3
:100150000F901F901895CF93DF93EC014FEF5FEF57
:1001600020E070E0DB0112971CC0A895EC0FFD1F8A
:1001700080814827842F82958427082E869586952E
:100180008025082E869580258770042E452F86951C
:1001900007948795502D4827069487955025482722
:1001A0002F5FE22FF0E0EA17FB07FCF2FE01E60FFB
:1001B000F71F82913196851711F020E007C020E0EB
:1001C00032978081841321E081E02827822FDF91FC
:1001D000CF910895FC012FEF3FEF90E01AC0A89552
:1001E00081912827822F82958227082E86958695D1
:1001F0008025082E869580258770022E232F8695D0
:1002000007948795302D2827069487953025282731
:100210009F5F961720F3C90108952F923F924F9246
:100220005F926F927F928F929F92AF92BF92CF9286
:10023000DF92EF92FF920F931F93DF93CF93CDB78F
:10024000DEB729970FB6F894DEBF0FBECDBF87B3D8
:10025000807F87BB84B38F6084BB85B3807F85BB81
:100260008A9A9298CE01019660E070E041E050E0F9
:1002700065D589818053823010F081E38983CE0176
:10028000069663E070E044E050E058D58E819F818F
:10029000A885B985803629E0920720E0A20720E0F2
:1002A000B20769F1803C22E1920720E0A20720E03A
:1002B000B20729F1803825E2920720E0A20720E06A
:1002C000B207E9F080302BE4920720E0A20720E09B
:1002D000B207A9F0803026E9920720E0A20720E0CB
:1002E000B20769F08050914EA040B04041F080E8E4
:1002F00095E2A0E0B0E08E839F83A887B987599AE2
:10030000EE80FF8008851985A8019701F3E0220F90
:10031000331F441F551FFA95D1F760E070E488E35E
:1003200090E0EAD42150304040405040BB27A52FF8
:10033000942F832F80BD29B980E6E81689E0F8065E
:1003400080E0080780E0180711F487EC17C020EC64
:10035000E21622E1F20620E0020720E0120711F483
:1003600084E60CC080E8E81685E2F80680E008071D
:1003700080E0180711F482E301C089E180936400F2
:10038000CE01049667E070E042E050E0D7D48C8163
:10039000809366028D8180936702CE01029661E0B0
:1003A00070E041E050E0CAD48A818053833010F07D
:1003B00080E38A83CE01039662E070E041E050E082
:1003C000BDD48B818153823010F082E38B838B818B
:1003D000813311F08EE801C086E89A81903311F4E0
:1003E0008F7C08C0913311F4806304C0923311F400
:1003F0008F7E806280BD88E18AB98AB1806C8AB9BB
:1004000078942FE088E190E00FB6F894A89581BD2C
:100410000FBE21BD1092620079E9A72E73E0B72EBE
:1004200064E5F62E59E4E52E4DE3D42E1AE001E4FE
:1004300032E0832E912C8C0E9D1E23E0622E712CB7
:100440006C0E7D1E96E0492E512C4C0E5D1E84E0F4
:10045000282E312C2C0E3D1EA89594B58091640059
:10046000981708F410C480916700882309F00BC422
:1004700080916500882309F006C480916600882376
:1004800009F001C485B5887F85BD14BCCFB6F8944A
:100490006091600087E691E05EDE882309F4A5C1E3
:1004A0009091670180916602981709F07BC0809156
:1004B0006801843009F076C080916901882309F0D1
:1004C00071C080916A01882309F06CC080916B0132
:1004D000882309F067C080916C01813009F062C007
:1004E000A895809166028093680084E080936900FB
:1004F00082E080936A0010926B0010926C00B39BB4
:1005000004C080916C00877F03C080916C0088607C
:1005100080936C00B29B04C080916C008B7F03C001
:1005200080916C00846080936C00B19B04C08091CA
:100530006C008D7F03C080916C00826080936C00A2
:10054000B09B0AC080916C008E7F80936C004FEF4F
:100550005FEF20E030E004C080916C008160F5CF57
:10056000A895F901E859FF4F80814827842F82958B
:100570008427082E869586958025082E86958025C9
:100580008770042E452F869507948795502D482710
:1005900006948795502548272F5F3F4F253031051A
:1005A000F9F680C09091670180916602981709F072
:1005B0007EC090916801933009F079C08091690103
:1005C000882309F074C080916A01882309F06FC004
:1005D00080916B01882309F06AC080916C018130A1
:1005E00009F065C0A8958091660280936800909399
:1005F000690082E080936A0010926B0010926C0098
:10060000AB9B04C080916C00886003C080916C003B
:10061000877F80936C00A89B04C080916C008460ED
:1006200003C080916C008B7F80936C00A99B04C0F9
:1006300080916C00826003C080916C008D7F8093FC
:100640006C00AA9B0AC080916C00816080936C0052
:100650004FEF5FEF20E030E004C080916C008E7FB0
:10066000F5CFA895F901E859FF4F80814827842FDD
:1006700082958427082E869586958025082E869556
:1006800080258770042E452F869507948795502DD9
:10069000482706948795502548272F5F3F4F2530E0
:1006A0003105F9F640936D0050936E00D0C09091E3
:1006B000670180916602981709F09EC290916801C7
:1006C000963009F099C280916901882309F094C29B
:1006D00080916A01882309F08FC2A89580916602F3
:1006E000809368009093690010926A0010926B00EA
:1006F00010926C0010926D0080916C0183FF02C01B
:10070000AB9A01C0AB9880916C0182FF02C0A89A9D
:1007100001C0A89880916C0181FF02C0A99A01C014
:10072000A99880916C0180FF02C0AA9A01C0AA9882
:10073000AB9B04C080916D00886003C080916D0008
:10074000877F80936D00A89B04C080916D008460BA
:1007500003C080916D008B7F80936D00A99B04C0C6
:1007600080916D00826003C080916D008D7F8093C9
:100770006D00AA9B0AC080916D00816080936D001E
:100780004FEF5FEF20E030E004C080916D008E7F7E
:10079000F5CFA895F901E859FF4F80814827842FAC
:1007A00082958427082E869586958025082E869525
:1007B00080258770042E452F869507948795502DA8
:1007C000482706948795502548272F5F3F4F2630AE
:1007D0003105F9F640936E0050936F0088E08093E6
:1007E000610081E08093630007C2809167018332DA
:1007F00081F580916801813361F5809169018F35C0
:1008000041F580916A018F3521F580916B01853426
:1008100001F580916C018334E1F480916D0188349D
:10082000C1F420916E012F34A1F4A89594E3909324
:10083000680084E480936900E0926A0090936B0002
:1008400082E580936C0020936D0010936E0087E02A
:10085000C6CF809167018332C9F4809168018133EA
:10086000A9F4809169018F3589F480916A018C34F3
:1008700069F480916B018F3449F480916C018F345D
:1008800029F480916D01803509F4FFCF80916701D3
:10089000803489F580916801833469F5809169011C
:1008A0008F3449F580916A018E3429F580916B016E
:1008B000863409F580916C018F35E9F480916D01E2
:1008C0008134C9F480916E018434A9F480916F0160
:1008D000843489F480917001823569F4A8958091FF
:1008E0007201883F08F01AC1809172018C83C101A6
:1008F00067E070E010C180916701803409F072C038
:1009000080916801833409F06DC0809169018F3452
:1009100009F068C080916A018E3409F063C080914B
:100920006B01863409F05EC080916C018F3509F04F
:1009300059C080916D01823409F054C080916E01DC
:10094000813409F04FC080916F01853509F04AC0AC
:1009500080917001843409F045C0A895809172019E
:10096000803209F449C180917201813329F480E613
:1009700099E0A0E0B0E02CC080917201823329F4AC
:1009800080EC92E1A0E0B0E023C08091720183335B
:1009900029F480E895E2A0E0B0E01AC080917201ED
:1009A000843329F480E09BE4A0E0B0E011C08091A2
:1009B0007201853329F480E096E9A0E0B0E008C038
:1009C00080917201863341F480E091EEA0E0B0E0C6
:1009D0008E839F83A887B987C20163E070E044E0FB
:1009E00050E09BC080916701803409F049C080913C
:1009F0006801833409F044C0809169018F3409F0A3
:100A00003FC080916A018E34D9F580916B018634A4
:100A1000B9F580916C018F3599F580916D01833521
:100A200079F580916E01843559F580916F018F348D
:100A300039F580917001803519F58091710182340A
:100A4000F9F4809172018934D9F48091730184356D
:100A5000B9F480917401833599F4A8958091760159
:100A6000803209F4C9C080917601813321F08091F0
:100A70007601823309F48B83C30162E070E04BC0DE
:100A800080916701803409F055C0809168018334FA
:100A900009F050C0809169018F3409F04BC08091FA
:100AA0006A018E3409F046C080916B01863409F0EA
:100AB00041C080916C018F35E9F580916D018035E1
:100AC000C9F580916E018134A9F580916F0182355D
:100AD00089F580917001893469F5809171018435BF
:100AE00049F580917201893529F5A89580917401A5
:100AF000803209F481C080917401803341F080918B
:100B00007401813321F080917401823309F48A8366
:100B1000C40161E070E041E050E020D10093680042
:100B200083E4809369008BE480936A0010936B00E8
:100B300084E055CE80916701803409F05CC020913B
:100B40006801233409F057C0909169019F3409F07E
:100B500052C080916A018E3409F04DC080916B01C2
:100B6000863409F048C0A89583E580936800F09228
:100B7000690090936A0080E580936B0080E2809327
:100B80006C0082E480936D00E0926E00F0926F0042
:100B900083E580937000D09271008B818093720006
:100BA0001093730080E5809374000093750082E5D4
:100BB00080937600E0927700F092780089E5809348
:100BC0007900D0927A008A8180937B0010937C0018
:100BD00085E480937D0020937E0028E420937F00AD
:100BE00090938000D092810089818093820010933D
:100BF00083008CE1F4CDA8951092620090E006C0CD
:100C0000E92FF0E0E959FE4F10829F5F809160006C
:100C10009817B0F31092600080916300882389F1E7
:100C2000A8953FB7F894929AC5010197F1F7809182
:100C30006100882329F15D9BFECF809168008CB90B
:100C4000A0E0B0E00AC0CD010196FC01E859FF4FD9
:100C50002081A859BF4F2C93DC018091610090E066
:100C6000A817B90784F3E0916100F0E0E859FF4F5D
:100C70001082809161008150809361001092630026
:100C80003FBFCFBEE9CB94B580916400981708F4BC
:100C9000E3CB80916700209165004091660090E071
:100CA000813009F491E080E0213009F481E0982B53
:100CB000892F90E020E030E0413011F421E030E075
:100CC000822B932B892B09F4C7CB1092620090E002
:100CD00006C0E92FF0E0E959FE4F10829F5F809136
:100CE00060009817B0F310926000109267001092A5
:100CF000650010926600B0CBA1E21A2EAA1BBB1BA6
:100D0000FD010DC0AA1FBB1FEE1FFF1FA217B307D7
:100D1000E407F50720F0A21BB30BE40BF50B661FED
:100D2000771F881F991F1A9469F7609570958095B1
:100D300090959B01AC01BD01CF010895DC01CB0171
:100D4000FC01E199FECF06C0FFBBEEBBE09A3196F5
:100D50000DB20D9241505040B8F70895DC01A40F38
:100D6000B51F4150504040F0CB01840F951F2E918C
:100D700005D041505040D8F70895262FE199FECF75
:100D80009FBB8EBBE09A01970DB2021631F02DBBCE
:100D90000FB6F894E29AE19A0FBE0895F894FFCF47
:00000001FF
