:1000000012C021C020C01FC01EC01DC0B3C01BC075
:100010001AC019C018C018C016C05EC014C013C0E2
:1000200012C011C010C011241FBECFE5D4E0DEBF46
:10003000CDBF11E0A0E6B0E001C01D92A133B10731
:10004000E1F7ACD040C6DCCF1F920F920FB60F92F3
:1000500011248F939F93EF93FF93A8955C9B03C00C
:1000600081E0809364005B9B03C081E08093650026
:100070005A9B03C081E0809366009CB19A3089F05E
:100080001DBC1CBC89B7806489BFE0916000F0E0B2
:10009000E553FF4F9083809160008F5F80936000F5
:1000A00012C089B78F7B89BF80916400813059F07D
:1000B00080916500813039F080916600813019F0BF
:1000C00081E080936200FF91EF919F918F910F905B
:1000D0000FBE0F901F9018951F920F920FB60F92A0
:1000E00011242F933F938F939F93AF93BF93EF93DD
:1000F000FF93A895929A29E933E0C9010197F1F796
:1001000080916100882329F15D9BFECF809167007B
:100110008CB9A0E0B0E00AC0CD010196FC01E9591C
:10012000FF4F2081A959BF4F2C93DC0180916100C2
:1001300090E0A817B90784F3E0916100F0E0E95975
:10014000FF4F80E280838091610081508093610045
:1001500004C09298C9010197F1F7FF91EF91BF9107
:10016000AF919F918F913F912F910F900FBE0F9064
:100170001F9018951F920F920FB60F9211248F9314
:10018000A895109260001092620089B78F7B89BF9A
:100190008F910F900FBE0F901F9018952F923F9246
:1001A0004F925F926F927F928F929F92AF92BF9287
:1001B000CF92DF92EF92FF920F931F93DF93CF9333
:1001C000CDB7DEB729970FB6F894DEBF0FBECDBF0F
:1001D00087B3807F87BB84B38F6084BB85B3807F08
:1001E00085BB8A9A929880E19EE09BBD8ABD8EB5C0
:1001F0008D608EBDCE01019660E070E041E050E080
:1002000032D589818053823010F081E38983CE0119
:10021000069663E070E044E050E025D58E819F8132
:10022000A885B985803629E0920720E0A20720E062
:10023000B20769F1803C22E1920720E0A20720E0AA
:10024000B20729F1803825E2920720E0A20720E0DA
:10025000B207E9F080302BE4920720E0A20720E00B
:10026000B207A9F0803026E9920720E0A20720E03B
:10027000B20769F08050914EA040B04041F080E854
:1002800095E2A0E0B0E08E839F83A887B987599A52
:100290002E813F8148855985F3E0220F331F441F8B
:1002A000551FFA95D1F760E070E488E390E0B9D487
:1002B0002150304040405040BB27A52F942F832F22
:1002C00080BD29B9CE01049667E070E042E050E0BD
:1002D000CAD48C8180932F018D8180933001CE010F
:1002E000029661E070E041E050E0BDD48A81805325
:1002F000833010F080E38A83CE01039662E070E0E1
:1003000041E050E0B0D48B818153823010F082E321
:100310008B838B81813311F08EE801C086E89A814E
:10032000903311F48F7C08C0913311F4806304C0C2
:10033000923311F48F7E806280BD88E18AB98AB1E0
:10034000806C8AB978942FE088E190E00FB6F89439
:10035000A89581BD0FBE21BD70E2A72E63E5E62EF4
:1003600054E5D52E49E4C42E3DE3F32E1AE001E412
:100370004E010894811C911C22E0622E712C6C0E9F
:100380007D1E93E0492E512C4C0E5D1E86E0282EDA
:10039000312C2C0E3D1EA89580916200882309F413
:1003A00008C4BFB6F8948091CB00833209F0F6C13F
:1003B0009091CC0080912F01981709F0EFC1909196
:1003C000CD0080913001981709F0E8C1A8953091CF
:1003D000CE00323509F049C02091CF00293409F010
:1003E00044C09091D000903309F03FC04091D100BB
:1003F0004133D9F5A89581E28093670080912F0160
:1004000080936800809130018093690030936A0086
:1004100020936B008091D00080936C008091D1007C
:1004200080936D008FE580936E0090936F009093A2
:1004300070009093710090937200B39B03C09093EF
:10044000730002C040937300B29B02C080E301C0FE
:1004500081E380937400B19B02C080E301C081E31B
:1004600080937500B09B3DC13EC13091CE003235C6
:10047000A1F52091CF002F3481F59091D0009033D9
:1004800061F54091D100413341F5A89581E2809317
:10049000670080912F0180936800809130018093E4
:1004A000690030936A0020936B008091D0008093A4
:1004B0006C008091D10080936D008FE580936E0079
:1004C00090936F00909370009093710090937200DE
:1004D000AB9BF2C040937300F4C08091CE0087358F
:1004E00009F077C08091CF008F3409F072C08091FD
:1004F000D000803309F06DC08091D100813309F0C4
:1005000068C08091D2008F3509F063C0A8958091B2
:10051000D700803311F4AB9801C0AB9A8091D8001A
:10052000803311F4A89801C0A89A8091D900803333
:1005300011F4A99801C0A99A8091DA00803311F4CE
:10054000AA9801C0AA9A9981913309F023C381E244
:100550008093670080912F01809368008091300123
:100560008093690087E580936A008FE480936B0035
:100570008091D00080936C008091D10080936D00B9
:100580008FE580936E0080E380936F00809370000E
:1005900080937100809372008091D700803319F4AA
:1005A0008093730002C0909373008091D8008033D1
:1005B00009F081E3809374008091D900803309F0C1
:1005C00081E3809375008091DA00803309F089C05F
:1005D0008BC08091CE00833509F08CC08091CF0014
:1005E0008F3409F087C08091D000803309F082C039
:1005F0008091D100813309F07DC08091D2008F3588
:1006000009F078C0A8958091D300843341F480919B
:10061000D500803311F4AB9825C0AB9A23C08091EC
:10062000D300833341F48091D500803311F4A8982E
:1006300019C0A89A17C08091D300823341F48091E9
:10064000D500803311F4A9980DC0A99A0BC08091F0
:10065000D300813339F48091D500803311F4AA9806
:1006600001C0AA9A9981913309F094C281E28093E2
:10067000670080912F018093680080913001809302
:100680006900E0926A008FE480936B008091D00053
:1006900080936C008091D10080936D008FE58093F2
:1006A0006E0080E380936F008093700080937100F0
:1006B00080937200AB9B03C09093730002C0809341
:1006C0007300A89B02C081E301C080E380937400A3
:1006D000A99B02C081E301C080E380937500AA9BBF
:1006E00002C081E301C080E380937600109377001D
:1006F00081E14BC28091CE008F3521F58091CF00F2
:10070000853401F58091D0008334E1F48091D100EB
:100710008834C1F42091D2002F34A1F4A89594E339
:100720009093670084E480936800C092690090937E
:100730006A0082E580936B0020936C0010936D003B
:1007400087E023C28091CE008F3589F48091CF005D
:100750008C3469F48091D0008F3449F48091D100B9
:100760008F3429F48091D200803509F4FFCFA89509
:100770008981813309F00EC281E2809367008EE4A3
:10078000809368000093690083E480936A008BE49F
:1007900080936B0010936C0086E0F7C18091CB00D2
:1007A0008034E1F58091CC008334C1F58091CD0097
:1007B0008F34A1F58091CE008E3481F58091CF00E9
:1007C000863461F58091D0008F3541F58091D1005C
:1007D000813421F58091D200843401F58091D300D9
:1007E0008434E1F48091D4008235C1F4A8958091DD
:1007F000D600803209F4CEC18091D700803209F44E
:10080000C9C18091D6008C838091D7008D83CE01A1
:10081000049667E070E042E050E04CC18091CB006C
:10082000803409F072C08091CC00833409F06DC02F
:100830008091CD008F3409F068C08091CE008E3455
:1008400009F063C08091CF00863409F05EC08091CA
:10085000D0008F3509F059C08091D100823409F061
:1008600054C08091D200813409F04FC08091D300F0
:10087000853509F04AC08091D400843409F045C020
:10088000A8958091D600803209F484C18091D60069
:10089000813329F480E699E0A0E0B0E02CC080919B
:1008A000D600823329F480EC92E1A0E0B0E023C0CE
:1008B0008091D600833329F480E895E2A0E0B0E08F
:1008C0001AC08091D600843329F480E09BE4A0E034
:1008D000B0E011C08091D600853329F480E096E91C
:1008E000A0E0B0E008C08091D600863341F480E0FB
:1008F00091EEA0E0B0E08E839F83A887B987C10105
:1009000063E070E044E050E0D5C08091CB008034DB
:1009100009F049C08091CC00833409F044C0809133
:10092000CD008F3409F03FC08091CE008E34D9F5D0
:100930008091CF008634B9F58091D0008F3599F53C
:100940008091D100833579F58091D200843559F5B5
:100950008091D3008F3439F58091D400803519F51A
:100960008091D5008234F9F48091D6008934D9F48D
:100970008091D7008435B9F48091D800833599F4FB
:10098000A8958091DA00803209F404C18091DA00E0
:10099000813321F08091DA00823309F48B83C20124
:1009A00062E070E085C08091CB00803409F044C0E3
:1009B0008091CC00833409F03FC08091CD008F340A
:1009C000D9F58091CE008E34B9F58091CF00863470
:1009D00099F58091D0008F3579F58091D1008035DF
:1009E00059F58091D200813439F58091D300823558
:1009F00019F58091D4008934F9F48091D5008435BB
:100A0000D9F48091D6008935B9F4A8958091D800A1
:100A1000803209F4BFC08091D800803341F08091CA
:100A2000D800813321F08091D800823309F48A8381
:100A3000C30161E070E03CC08091CB00803409F0DC
:100A400046C08091CC00833409F041C08091CD0034
:100A50008F34E9F58091CE008E34C9F58091CF00B6
:100A60008634A9F58091D0008F3589F58091D10029
:100A7000853469F58091D200833449F58091D300A3
:100A8000883429F58091D4008F3409F5A895809198
:100A9000D600803209F47EC08091D600803321F0E8
:100AA0008091D600813309F48983C40160E070E04D
:100AB00041E050E0E8D00093670083E48093680051
:100AC0008BE48093690010936A0084E05EC080919B
:100AD000CB00803409F05EC02091CC00233409F0B3
:100AE00059C09091CD009F3409F054C08091CE0040
:100AF0008E3409F04FC08091CF00863409F04AC08F
:100B0000A895E0926700D09268009093690080E514
:100B100080936A0080E280936B0082E480936C0093
:100B2000C0926D00D0926E00E0926F00F092700063
:100B30008B81809371001093720080E58093730025
:100B40000093740082E580937500C0927600D09285
:100B5000770089E580937800F09279008A8180930C
:100B60007A0010937B0085E480937C0020937D00C5
:100B700028E420937E0090937F00F092800089818A
:100B800080938100109382008CE18093610081E06A
:100B900080936300109262001092600080E090E009
:100BA000FC01E553FF4FA082019684369105C1F701
:100BB000BFBE80916300882309F4EDCBA8953FB7B1
:100BC000F894929A89E993E00197F1F78091610096
:100BD000882329F15D9BFECF809167008CB9A0E04E
:100BE000B0E00AC0CD010196FC01E959FF4F208118
:100BF000A959BF4F2C93DC018091610090E0A817A8
:100C0000B90784F3E0916100F0E0E959FF4FA08259
:100C100080916100815080936100109263003FBF1A
:100C2000BACBA1E21A2EAA1BBB1BFD010DC0AA1F45
:100C3000BB1FEE1FFF1FA217B307E407F50720F045
:100C4000A21BB30BE40BF50B661F771F881F991FC0
:100C50001A9469F760957095809590959B01AC0109
:100C6000BD01CF010895DC01CB01FC01E199FECF6C
:100C700006C0FFBBEEBBE09A31960DB20D9241501B
:100C80005040B8F70895DC01A40FB51F4150504003
:100C900040F0CB01840F951F2E9105D0415050405C
:100CA000D8F70895262FE199FECF9FBB8EBBE09A1F
:100CB00001970DB2021631F02DBB0FB6F894E29AEF
:0A0CC000E19A0FBE0895F894FFCFEB
:00000001FF
