:1000000012C021C020C01FC01EC01DC01CC01BC00C
:100010001AC019C018C018C016C050C014C013C0F0
:1000200012C011C010C011241FBECFE5D4E0DEBF46
:10003000CDBF12E0A0E6B0E001C01D92A836B10726
:10004000E1F7EBD08EC8DCCF1F920F920FB60F9264
:1000500011248F939F93EF93FF93809162008823E5
:1000600021F5A8955C9B03C081E0809365005B9BB4
:1000700003C081E0809366005A9B03C081E08093B7
:1000800067009CB180916000843658F4E091600074
:10009000F0E0E959FE4F9083809160008F5F80937C
:1000A000600085B5856085BD14BCFF91EF919F917F
:1000B0008F910F900FBE0F901F9018951F920F9267
:1000C0000FB60F9211242F933F938F939F93AF936B
:1000D000BF93EF93FF93A895929A29E933E0C90162
:1000E0000197F1F780916100882321F15D9BFECF9C
:1000F000809168008CB9A0E0B0E00AC0CD01019603
:10010000FC01E859FF4F2081A859BF4F2C93DC0117
:100110008091610090E0A817B90784F3E091610035
:10012000F0E0E859FF4F1082809161008150809388
:10013000610004C09298C9010197F1F7FF91EF9116
:10014000BF91AF919F918F913F912F910F900FBED3
:100150000F901F901895CF93DF93EC014FEF5FEF57
:1001600020E070E0DB0112971CC0A895EC0FFD1F8A
:1001700080814827842F82958427082E869586952E
:100180008025082E869580258770042E452F86951C
:1001900007948795502D4827069487955025482722
:1001A0002F5FE22FF0E0EA17FB07FCF2FE01E60FFB
:1001B000F71F82913196851711F020E007C020E0EB
:1001C00032978081841321E081E02827822FDF91FC
:1001D000CF910895FC012FEF3FEF90E01AC0A89552
:1001E00081912827822F82958227082E86958695D1
:1001F0008025082E869580258770022E232F8695D0
:1002000007948795302D2827069487953025282731
:100210009F5F961720F3C90108952F923F924F9246
:100220005F926F927F928F929F92AF92BF92CF9286
:10023000DF92EF92FF920F931F93DF93CF93CDB78F
:10024000DEB729970FB6F894DEBF0FBECDBF88B3D7
:10025000887F88BB87B3876087BB85B3807F85BB7A
:1002600084B38F6084BB8A9A9298CE01019660E035
:1002700070E041E050E045D789818053823010F032
:1002800081E38983CE01069663E070E044E050E0AC
:1002900038D78E819F81A885B985803629E092075D
:1002A00020E0A20720E0B20769F1803CE2E19E076E
:1002B000E0E0AE07E0E0BE0729F18038F5E29F07F5
:1002C000F0E0AF07F0E0BF07E9F080302BE49207E1
:1002D00020E0A20720E0B207A9F08030E6E99E07FF
:1002E000E0E0AE07E0E0BE0769F08050914EA0402C
:1002F000B04041F080E895E2A0E0B0E08E839F83BB
:10030000A887B987599AEE80FF8008851985A801CA
:100310009701F3E0220F331F441F551FFA95D1F7C1
:1003200060E070E488E390E0CAD62150304040405D
:100330005040BB27A52F942F832F80BD29B920E6DD
:10034000E21629E0F20620E0020720E0120711F48D
:1003500087EC17C080ECE81682E1F80680E0080719
:1003600080E0180711F484E60CC0E0E8EE16E5E240
:10037000FE06E0E00E07E0E01E0711F482E301C094
:1003800089E180936400CE01049667E070E042E06A
:1003900050E0B7D68C81809366028D81809367028E
:1003A000CE01029661E070E041E050E0AAD68A8179
:1003B0008053833010F080E38A83CE01039662E09D
:1003C00070E041E050E09DD68B818153823010F087
:1003D00082E38B838B81813311F08EE801C086E844
:1003E0009A81903311F48F7C08C0913311F48063AB
:1003F00004C0923311F48F7E806280BD88E18AB997
:100400008AB1806C8AB978942FE088E190E00FB6C9
:10041000F894A89581BD0FBE21BD1092620079E9C4
:10042000A72E73E0B72E63E5C62E54E5E52E4DE307
:10043000F42E1AE001E432E0832E912C8C0E9D1EE6
:1004400023E0622E712C6C0E7D1E96E0492E512CFD
:100450004C0E5D1E84E0282E312C2C0E3D1EA895DE
:1004600094B580916400981708F4F0C580916700F6
:10047000882309F0EBC580916500882309F0E6C563
:1004800080916600882309F0E1C585B5887F85BD28
:1004900014BCDFB6F8946091600087E691E05BDE03
:1004A000882309F486C390916701809166029817AA
:1004B00009F007C180916801813009F002C1809183
:1004C0006901882309F0FDC080916A01873008F036
:1004D000F8C080916B01882309F0F3C080916C0112
:1004E000893008F0EEC0A89580916602809368007C
:1004F00081E08093690080936A0040E020E030E072
:1005000061E070E066C080916A01F901E80FF11DB9
:10051000E630F10519F4C09B51C047C080916A01D3
:10052000F901E80FF11DE530F10519F4C19B46C052
:100530003CC080916A01F901E80FF11DE430F1053A
:1005400019F4C29B3BC031C080916A01F901E80FE8
:10055000F11DE330F10519F4AB9B30C026C080914A
:100560006A01F901E80FF11DE230F10519F4A89BC9
:1005700025C01BC080916A01F901E80FF11DCF0170
:10058000E130F10549F4022E02C0880F991F0A9448
:10059000E2F7A99B1AC010C080916A01F901E80F27
:1005A000F11D3097A1F4AA9B09C0CB01022E02C015
:1005B000880F991F0A94E2F7482B09C0CB01022E3D
:1005C00002C0880F991F0A94E2F7809548232F5F95
:1005D0003F4F80916C0190E0281739070CF493CFBE
:1005E00040936B00A895209168008FEF9FEF8227C2
:1005F000282F22952827022E269526952025022E83
:10060000269520252770082E892F26950794279553
:10061000902D82270694279590258227A8952091D2
:1006200069008227282F22952827022E26952695B5
:100630002025022E269520252770082E892F269505
:1006400007942795902D8227069427959025822739
:10065000A89520916A008227282F22952827022E0C
:10066000269526952025022E269520252770082ED2
:10067000892F269507942795902D822706942795F4
:1006800090258227A89520916B008227282F2295FC
:100690002827022E269526952025022E26952025F0
:1006A0002770082E892F269507942795902D82274D
:1006B000069427959025822780936C0090936D0077
:1006C000A7C29091670180916602981709F0A0C0B7
:1006D00090916801933009F09BC080916901882353
:1006E00009F096C080916A01882309F091C0809139
:1006F0006B01882309F08CC080916C01813009F076
:1007000087C0A895809166028093680090936900E5
:1007100082E080936A0010926B0010926C00C09B84
:1007200004C080916C00806403C080916C008F7B5A
:1007300080936C00C19B04C080916C00806203C0F8
:1007400080916C008F7D80936C00C29B04C080916F
:100750006C00806103C080916C008F7E80936C0080
:10076000AB9B04C080916C00886003C080916C00DA
:10077000877F80936C00A89B04C080916C0084608C
:1007800003C080916C008B7F80936C00A99B04C098
:1007900080916C00826003C080916C008D7F80939B
:1007A0006C00AA9B0AC080916C00816080936C00F1
:1007B0004FEF5FEF20E030E004C080916C008E7F4F
:1007C000F5CFA895F901E859FF4F80814827842F7C
:1007D00082958427082E869586958025082E8695F5
:1007E00080258770042E452F869507948795502D78
:1007F000482706948795502548272F5F3F4F25307F
:100800003105F9F640936D0050936E0087E0CBC13F
:100810009091670180916602981709F0F6C0809167
:100820006801853009F0F1C080916901882309F0E1
:10083000ECC080916A018823C9F080916A018130FF
:10084000A9F080916A01823089F080916A01833039
:1008500069F080916A01843049F080916A018530A5
:1008600029F080916A01863009F0CFC080916B0138
:10087000882329F080916B018F3F09F0C6C08091D9
:100880006C01882309F0C1C0A8958091660280930D
:10089000680085E08093690010926A0080916A0187
:1008A00080936B0010926C0010926D0080916A0131
:1008B000863041F480916B018F3F11F4C09A49C09A
:1008C000C09847C080916A01853041F480916B01E6
:1008D0008F3F11F4C19A3DC0C1983BC080916A011D
:1008E000843041F480916B018F3F11F4C29A31C082
:1008F000C2982FC080916A01833041F480916B01CE
:100900008F3F11F4AB9A25C0AB9823C080916A0148
:10091000823041F480916B018F3F11F4A89A19C085
:10092000A89817C080916A01813041F480916B01D1
:100930008F3F11F4A99A0DC0A9980BC080916A014C
:10094000882339F480916B018F3F11F4AA9A01C07A
:10095000AA9880916A01863019F4C09B0EC02FC0FE
:1009600080916A01853019F4C19B07C028C080912D
:100970006A01843049F4C29922C010926C004FEF92
:100980005FEF20E030E01FC080916A01833019F4EE
:10099000AB9BF3CF14C080916A01823019F4A89BFD
:1009A000ECCF0DC080916A01813019F4A99BE5CF8D
:1009B00006C080916A01882311F7AA9BDECF8FEFD2
:1009C00080936C00DCCFA895F901E859FF4F808136
:1009D0004827842F82958427082E86958695802522
:1009E000082E869580258770042E452F86950794BE
:1009F0008795502D482706948795502548272F5FC7
:100A00003F4F26303105F9F6C9C0909167018091BA
:100A10006602981709F0D3C290916801963009F0E8
:100A2000CEC280916901882309F0C9C280916A0110
:100A3000882309F0C4C2A89580916602809368005B
:100A40009093690010926A0010926B0010926C00F3
:100A500010926D0080916C0186FF02C0C09A01C0A7
:100A6000C09880916C0185FF02C0C19A01C0C198F5
:100A700080916C0184FF02C0C29A01C0C29880912B
:100A80006C0183FF02C0AB9A01C0AB9880916C01EE
:100A900082FF02C0A89A01C0A89880916C0181FFD2
:100AA00002C0A99A01C0A99880916C0180FF02C080
:100AB000AA9A01C0AA98C09B04C080916D0080646E
:100AC00003C080916D008F7B80936D00C19B04C03B
:100AD00080916D00806203C080916D008F7D809356
:100AE0006D00C29B04C080916D00806103C0809145
:100AF0006D008F7E80936D00AB9B04C080916D0074
:100B0000886003C080916D00877F80936D00A89BF3
:100B100004C080916D00846003C080916D008B7F64
:100B200080936D00A99B04C080916D00826003C01A
:100B300080916D008D7F80936D00AA9B0AC080918B
:100B40006D00816080936D004FEF5FEF20E030E03B
:100B500004C080916D008E7FF5CFA895F901E8590A
:100B6000FF4F80814827842F82958427082E869501
:100B700086958025082E869580258770042E452F22
:100B8000869507948795502D48270694879550257C
:100B900048272F5F3F4F26303105F9F640936E000E
:100BA00050936F0088E08093610081E08093630040
:100BB00006C280916701833269F590916801809146
:100BC0006602981739F5809169018F3519F5809182
:100BD0006A018534F9F480916B018334D9F48091F2
:100BE0006C018834B9F490916D019F3499F4A89503
:100BF00087E380936800F2E5F093690090936A00C0
:100C00008FE580936B008DE480936C0010936D00F2
:100C100086E0C9CF809167018332D9F49091680151
:100C2000809166029817A9F4809169018F3589F443
:100C300080916A018C3469F480916B018F3449F49E
:100C400080916C018F3429F480916D01803509F415
:100C5000FFCF80916701803489F5809168018334EA
:100C600069F5809169018F3449F580916A018E346C
:100C700029F580916B01863409F580916C018F35DF
:100C8000E9F480916D018134C9F480916E0184345E
:100C9000A9F480916F01843489F4809170018235C8
:100CA00069F4A89580917201883F08F01AC180917B
:100CB00072018C83C10167E070E010C1809167010F
:100CC000803409F072C080916801833409F06DC0EE
:100CD000809169018F3409F068C080916A018E3477
:100CE00009F063C080916B01863409F05EC0809189
:100CF0006C018F3509F059C080916D01823409F083
:100D000054C080916E01813409F04FC080916F0111
:100D1000853509F04AC080917001843409F045C0DE
:100D2000A89580917201803209F449C180917201C5
:100D3000813329F480E699E0A0E0B0E02CC08091F6
:100D40007201823329F480EC92E1A0E0B0E023C08C
:100D500080917201833329F480E895E2A0E0B0E04D
:100D60001AC080917201843329F480E09BE4A0E0F2
:100D7000B0E011C080917201853329F480E096E9DA
:100D8000A0E0B0E008C080917201863341F480E0B9
:100D900091EEA0E0B0E08E839F83A887B987C2015F
:100DA00063E070E044E050E09BC0809167018034D4
:100DB00009F049C080916801833409F044C08091F2
:100DC00069018F3409F03FC080916A018E34D9F5F2
:100DD00080916B018634B9F580916C018F3599F55E
:100DE00080916D01833579F580916E01843559F5D7
:100DF00080916F018F3439F580917001803519F53C
:100E0000809171018234F9F4809172018934D9F4AE
:100E1000809173018435B9F480917401833599F41C
:100E2000A89580917601803209F4C9C0809176013D
:100E3000813321F080917601823309F48B83C301E1
:100E400062E070E04BC080916701803409F055C0CA
:100E500080916801833409F050C0809169018F341A
:100E600009F04BC080916A018E3409F046C0809130
:100E70006B01863409F041C080916C018F35E9F532
:100E800080916D018035C9F580916E018134A9F59D
:100E900080916F01823589F580917001893469F5FF
:100EA00080917101843549F580917201893529F568
:100EB000A89580917401803209F481C080917401F9
:100EC000803341F080917401813321F0809174016D
:100ED000823309F48A83C40161E070E041E050E0AC
:100EE00020D10093680083E4809369008BE48093B1
:100EF0006A0010936B0084E056CE809167018034C5
:100F000009F05CC020916801233409F057C090912A
:100F100069019F3409F052C080916A018E3409F052
:100F20004DC080916B01863409F048C0A895C092ED
:100F30006800E092690090936A0080E580936B00FE
:100F4000E0E2E0936C00F2E4F0936D0089E48093BA
:100F50006E00E0926F00C0927000F09271008B8181
:100F60008093720010937300E0E5E09374000093A7
:100F70007500F2E5F093760089E480937700E092C3
:100F80007800E9E5E0937900F0927A008A81809315
:100F90007B0010937C00F5E4F0937D0020937E00AD
:100FA00028E420937F0090938000F0928100898153
:100FB00080938200109383008CE1F5CDA895109268
:100FC000620090E006C0E92FF0E0E959FE4F108280
:100FD0009F5F809160009817B0F31092600080913D
:100FE0006300882389F1A8953FB7F894929AC501C8
:100FF0000197F1F780916100882329F15D9BFECF75
:10100000809168008CB9A0E0B0E00AC0CD010196E3
:10101000FC01E859FF4F2081A859BF4F2C93DC01F8
:101020008091610090E0A817B90784F3E091610016
:10103000F0E0E859FF4F1082809161008150809369
:101040006100109263003FBFDFBE09CA94B5809172
:101050006400981708F403CA809167002091650026
:101060004091660090E0813009F491E080E0213009
:1010700009F481E0982B892F90E020E030E04130A6
:1010800011F421E030E0822B932B892B09F4E7C97E
:101090001092620090E006C0E92FF0E0E959FE4F9F
:1010A00010829F5F809160009817B0F310926000EB
:1010B000109267001092650010926600D0C9A1E2FC
:1010C0001A2EAA1BBB1BFD010DC0AA1FBB1FEE1FC2
:1010D000FF1FA217B307E407F50720F0A21BB30B0D
:1010E000E40BF50B661F771F881F991F1A9469F789
:1010F00060957095809590959B01AC01BD01CF01E5
:101100000895DC01CB01FC01E199FECF06C0FFBBD5
:10111000EEBBE09A31960DB20D9241505040B8F7B7
:101120000895DC01A40FB51F4150504040F0CB01A1
:10113000840F951F2E9105D041505040D8F7089547
:10114000262FE199FECF9FBB8EBBE09A01970DB28F
:10115000021631F02DBB0FB6F894E29AE19A0FBE59
:061160000895F894FFCF92
:00000001FF
