:1000000012C021C020C01FC01EC01DC01CC01BC00C
:100010001AC019C018C018C016C050C014C013C0F0
:1000200012C011C010C011241FBECFE5D4E0DEBF46
:10003000CDBF12E0A0E6B0E001C01D92AF36B1071F
:10004000E1F7EBD0E2C9DCCF1F920F920FB60F920F
:1000500011248F939F93EF93FF93809162008823E5
:1000600021F5A8955C9B03C081E0809366005B9BB3
:1000700003C081E0809367005A9B03C081E08093B6
:1000800068009CB180916000843658F4E091600073
:10009000F0E0E859FE4F9083809160008F5F80937D
:1000A000600085B5856085BD14BCFF91EF919F917F
:1000B0008F910F900FBE0F901F9018951F920F9267
:1000C0000FB60F9211242F933F938F939F93AF936B
:1000D000BF93EF93FF93A895929A29E933E0C90162
:1000E0000197F1F780916100882321F15D9BFECF9C
:1000F000809169008CB9A0E0B0E00AC0CD01019602
:10010000FC01E759FF4F2081A759BF4F2C93DC0119
:100110008091610090E0A817B90784F3E091610035
:10012000F0E0E759FF4F1082809161008150809389
:10013000610004C09298C9010197F1F7FF91EF9116
:10014000BF91AF919F918F913F912F910F900FBED3
:100150000F901F901895CF93DF93EC014FEF5FEF57
:1001600020E070E0DB0112971CC0A895EC0FFD1F8A
:1001700080814827842F82958427082E869586952E
:100180008025082E869580258770042E452F86951C
:1001900007948795502D4827069487955025482722
:1001A0002F5FE22FF0E0EA17FB07FCF2FE01E60FFB
:1001B000F71F82913196851711F020E007C020E0EB
:1001C00032978081841321E081E02827822FDF91FC
:1001D000CF910895FC012FEF3FEF90E01AC0A89552
:1001E00081912827822F82958227082E86958695D1
:1001F0008025082E869580258770022E232F8695D0
:1002000007948795302D2827069487953025282731
:100210009F5F961720F3C90108952F923F924F9246
:100220005F926F927F928F929F92AF92BF92CF9286
:10023000DF92EF92FF920F931F93DF93CF93CDB78F
:10024000DEB72A970FB6F894DEBF0FBECDBF88B3D6
:10025000887F88BB87B3876087BB85B3807F85BB7A
:1002600084B38F6084BB8A9A9298CE01019660E035
:1002700070E041E050E099D889818053823010F0DD
:1002800081E3898381E38A83CE01029667E070E08F
:1002900041E050E08AD88A818053823010F080E3B8
:1002A0008A83BA80CE01079663E070E044E050E0B4
:1002B0007CD88F819885A985BA85803629E09207F8
:1002C00020E0A20720E0B20769F1803C62E19607D6
:1002D00060E0A60760E0B60729F1803875E297076D
:1002E00070E0A70770E0B707E9F080302BE49207D1
:1002F00020E0A20720E0B207A9F0803066E9960767
:1003000060E0A60760E0B60769F08050914EA0401B
:10031000B04041F080E895E2A0E0B0E08F8398879C
:10032000A987BA87599AEF80F88409851A85A801A8
:10033000970173E0220F331F441F551F7A95D1F7A1
:1003400060E070E488E390E00ED8215030404040F7
:100350005040BB27A52F942F832F80BD29B980E65D
:10036000E81689E0F80680E0080780E0180711F435
:1003700087EC17C020ECE21622E1F20620E002072B
:1003800020E0120711F484E60CC060E8E61665E28E
:10039000F60660E0060760E0160711F482E301C08C
:1003A00089E180936400CE01059668E070E042E048
:1003B00050E0FBD78D8180936D028E8180936E0219
:1003C000CE01039661E070E041E050E0EED78B8112
:1003D0008053833010F080E38B83CE01049662E07B
:1003E00070E041E050E0E1D78C818153823010F021
:1003F00082E38C838C81813311F08EE801C086E822
:100400009B81903311F48F7C08C0913311F4806389
:1004100004C0923311F48F7E806280BD88E18AB976
:100420008AB1806C8AB978942FE088E190E00FB6A9
:10043000F894A89581BD0FBE21BD1092620049E9D4
:10044000642E43E0742ECC24C39436E0A32E4424BF
:100450004A94542C28E0822E91E0E92EF12C82E07F
:10046000282E312C2C0E3D1EA8951092650094B5B7
:1004700080916400981708F43DC780916800882334
:1004800009F038C780916600882309F033C780914E
:100490006700882309F02EC785B5887F85BD14BC09
:1004A0009FB6F89480916801833209F04DC0909115
:1004B000690180916D02981709F046C080916A0128
:1004C0008F3509F041C080916B018534E9F5809149
:1004D0006C018334C9F580916D018834A9F5909140
:1004E0006E019F3489F5A89587E38093690082E5C2
:1004F00080936A0090936B008FE580936C008DE48D
:1005000080936D0090936E0084E480936F0082E48A
:100510008093700085E58093710083E5809372007D
:1005200080E28093730086E58093740083E3809378
:1005300075008EE28093760080E3809377008AE0F6
:100540008093780080E149C2809168018332D9F4B8
:100550009091690180916D029817A9F480916A01C8
:100560008F3589F480916B018C3469F480916C0132
:100570008F3449F480916D018F3429F480916E019C
:10058000803509F4FFCF80916801803491F5809126
:100590006901833471F580916A018F3451F580913E
:1005A0006B018E3431F580916C01863411F58091A8
:1005B0006D018F35F1F480916E018134D1F4809119
:1005C0006F018434B1F480917001843491F480918E
:1005D0007101823571F4A89580917301883F08F00C
:1005E0006DC1809173018D83CE01059668E070E046
:1005F00062C180916801803409F073C08091690103
:10060000833409F06EC080916A018F3409F069C0AB
:1006100080916B018E3409F064C080916C01863446
:1006200009F05FC080916D018F3509F05AC080914B
:100630006E01823409F055C080916F01813409F058
:1006400050C080917001853509F04BC080917101D7
:10065000843409F046C0A89580917301803209F472
:10066000C0C180917301813329F480E699E0A0E054
:10067000B0E02CC080917301823329F480EC92E1C8
:10068000A0E0B0E023C080917301833329F480E8B7
:1006900095E2A0E0B0E01AC080917301843329F4A0
:1006A00080E09BE4A0E0B0E011C08091730185334D
:1006B00029F480E096E9A0E0B0E008C080917301E1
:1006C000863341F480E091EEA0E0B0E08F8398871C
:1006D000A987BA87CE01079663E070E044E050E056
:1006E000ECC080916801803409F04AC080916901B2
:1006F000833409F045C080916A018F3409F040C00D
:1007000080916B018E34E1F580916C018634C1F5E6
:1007100080916D018F35A1F580916E01833581F552
:1007200080916F01843561F5809170018F3441F5BE
:1007300080917101803521F580917201823401F53B
:10074000809173018934E1F4809174018435C1F49E
:10075000809175018335A1F4A8958091770180324D
:1007600009F43FC180917701813321F080917701B5
:10077000823309F48C83CE01049662E070E09BC062
:1007800080916801803409F045C08091690183340B
:1007900009F040C080916A018F34E1F580916B01CE
:1007A0008E34C1F580916C018634A1F580916D0184
:1007B0008F3581F580916E01803561F580916F01F3
:1007C000813441F580917001823521F5809171016C
:1007D000893401F5809172018435E1F480917301CF
:1007E0008935C1F4A89580917501803209F4F9C06A
:1007F00080917501803341F080917501813321F042
:1008000080917501823309F48B83CE01039661E0F8
:1008100070E051C080916801803409F05DC0809122
:100820006901833409F058C080916A018F3409F05E
:1008300053C080916B018E3409F04EC080916C01E1
:10084000863409F049C080916D018F3509F044C0AC
:1008500080916E01843509F03FC080916F0183342F
:10086000D9F5809170018035B9F5809171018F358E
:1008700099F5809172018D3479F5809173018F34EF
:1008800059F580917401843439F58091750185346E
:1008900019F5A89580917701803209F4A2C0809162
:1008A0007701803321F080917701813309F48A83C5
:1008B000C10167E070E041E050E087D581E48093BA
:1008C000690083E480936A008BE480936B008AE084
:1008D00080936C0084E081C080916801803409F0CD
:1008E00080C070916901733409F07BC060916A0126
:1008F0006F3409F076C080916B018E3409F071C0BD
:1009000080916C01863409F06CC0E0916D01E43493
:1009100009F067C0A89593E59093690034E530939A
:100920006A0060936B0050E550936C0080E2809306
:100930006D0082E480936E0049E440936F00309331
:100940007000909371002DE3209372008C8180934E
:1009500073009AE0909374005093750081E4809343
:10096000760082E580937700409378003093790099
:1009700089E580937A0020937B008B8180937C00B3
:1009800090937D0045E440937E0070937F0088E45F
:1009900080938000609381002093820089818093FE
:1009A0008300909384003093850070938600509369
:1009B00087008FE5809388008DE4809389006093A1
:1009C0008A00E0938B0040938C0020938D008A81F5
:1009D00080938E0090938F0087E280936100C09295
:1009E000630081E3B816B1F5809163008823D1F5E7
:1009F0008091680180936702809169018093680209
:100A000080916A018093690280916B0180936A02F0
:100A100080916C0180936B0280916D0180936C02D8
:100A200020E030E00BC0F901E259FE4F8081D9018E
:100A3000A859BE4F8C9310822F5F3F4F809160006A
:100A400090E0281739077CF38091600086508093EE
:100A5000600008C06091600088E691E07CDB813036
:100A600009F0BAC380916300882309F0B5C390915F
:100A7000680180916D02981709F013C19091690186
:100A8000913009F00EC180916A01882309F009C1F3
:100A900080916B01873008F004C180916C0188233C
:100AA00009F0FFC080916D01893008F0FAC0A89567
:100AB0009093650080916D028093690090936A0025
:100AC00090936B0040E020E030E067C080916B01C4
:100AD000B901680F711D6630710519F4C09B52C0D1
:100AE00048C080916B01B901680F711D65307105B7
:100AF00019F4C19B47C03DC080916B01B901680FDB
:100B0000711D6430710519F4C29B3CC032C08091E4
:100B10006B01B901680F711D6330710519F4AB9B4E
:100B200031C027C080916B01B901680F711D62301F
:100B3000710519F4A89B26C01CC080916B01B901F6
:100B4000680F711DCB016130710549F4022E02C09E
:100B5000880F991F0A94E2F7A99B1BC011C08091CE
:100B60006B01B901680F711D61157105A1F4AA9B94
:100B700009C0C701022E02C0880F991F0A94E2F72C
:100B8000482B09C0C701022E02C0880F991F0A9482
:100B9000E2F7809548232F5F3F4F80916D0190E0F1
:100BA000281739070CF492CF40936C0084E08093AF
:100BB00061008091610080936C0270E3B71609F0C8
:100BC00008C3A89520916900C2018227282F229589
:100BD0002827022E269526952025022E26952025AB
:100BE0002770082E892F269507942795902D822708
:100BF0000694279590258227A89520916A00822740
:100C0000282F22952827022E269526952025022E6C
:100C1000269520252770082E892F2695079427953D
:100C2000902D82270694279590258227A8952091BC
:100C30006B008227282F22952827022E269526959D
:100C40002025022E269520252770082E892F2695EF
:100C500007942795902D8227069427959025822723
:100C6000A89520916C008227282F22952827022EF4
:100C7000269526952025022E269520252770082EBC
:100C8000892F269507942795902D822706942795DE
:100C90009025822780936D0090936E00A092610052
:100CA00098C29091680180916D02981709F0AEC0CA
:100CB00090916901933009F0A9C080916A0188235D
:100CC00009F0A4C080916B01882309F09FC0809136
:100CD0006C01882309F09AC080916D01813009F080
:100CE00095C0A8958093650080916D0280936900FE
:100CF00090936A0082E080936B0010926C001092D7
:100D00006D00C09B04C080916D00806403C0809121
:100D10006D008F7B80936D00C19B04C080916D003E
:100D2000806203C080916D008F7D80936D00C29BB7
:100D300004C080916D00806103C080916D008F7E42
:100D400080936D00AB9B04C080916D00886003C0F0
:100D500080916D00877F80936D00A89B04C0809177
:100D60006D00846003C080916D008B7F80936D0067
:100D7000A99B04C080916D00826003C080916D00CA
:100D80008D7F80936D00AA9B04C080916D0081606F
:100D900003C080916D008E7F80936D0085E080930D
:100DA00061008091610080936C0220E3B21609F02B
:100DB00010C24FEF5FEF20E030E0A895F901E7594E
:100DC000FF4F80814827842F82958427082E86959F
:100DD00086958025082E869580258770042E452FC0
:100DE000869507948795502D48270694879550251A
:100DF00048272F5F3F4F25303105F9F640936E00AD
:100E000050936F0087E080936100E3C19091680187
:100E100080916D02981709F002C1809169018530B7
:100E200009F0FDC080916A01882309F0F8C0809123
:100E30006B018823C9F080916B018130A9F080910A
:100E40006B01823089F080916B01833069F0809171
:100E50006B01843049F080916B01853029F08091DD
:100E60006B01863009F0DBC080916C01882329F08A
:100E700080916C018F3F09F0D2C080916D01882371
:100E800009F0CDC0A895C092650080916D02809355
:100E9000690065E060936A0010926B0080916B01BD
:100EA00080936C0010926D0010926E0080916B0127
:100EB000863041F480916C018F3F11F4C09A49C093
:100EC000C09847C080916B01853041F480916C01DE
:100ED0008F3F11F4C19A3DC0C1983BC080916B0116
:100EE000843041F480916C018F3F11F4C29A31C07B
:100EF000C2982FC080916B01833041F480916C01C6
:100F00008F3F11F4AB9A25C0AB9823C080916B0141
:100F1000823041F480916C018F3F11F4A89A19C07E
:100F2000A89817C080916B01813041F480916C01C9
:100F30008F3F11F4A99A0DC0A9980BC080916B0145
:100F4000882339F480916C018F3F11F4AA9A01C073
:100F5000AA9880916B01863019F4C09B2EC029C0DD
:100F600080916B01853019F4C19B27C022C080910C
:100F70006B01843019F4C29B20C01BC080916B01AF
:100F8000833019F4AB9B19C014C080916B0182307F
:100F900019F4A89B12C00DC080916B01813019F427
:100FA000A99B0BC006C080916B01882341F4AA9BCA
:100FB00004C08FEF80936D0002C010926D00A0926C
:100FC00061008091610080936C0270E3B71609F0B4
:100FD00000C14FEF5FEF20E030E0A895F901E7593D
:100FE000FF4F80814827842F82958427082E86957D
:100FF00086958025082E869580258770042E452F9E
:10100000869507948795502D4827069487955025F7
:1010100048272F5F3F4F26303105F9F6D4C0909115
:10102000680180916D02981709F0D7C0909169010D
:10103000963009F0D2C080916A01882309F0CDC0B2
:1010400080916B01882309F0C8C0A895C092650003
:1010500080916D028093690090936A0010926B00FA
:1010600010926C0010926D0010926E0080916D01D4
:1010700086FF02C0C09A01C0C09880916D0185FFB3
:1010800002C0C19A01C0C19880916D0184FF02C065
:10109000C29A01C0C29880916D0183FF02C0AB9AD1
:1010A00001C0AB9880916D0182FF02C0A89A01C077
:1010B000A89880916D0181FF02C0A99A01C0A998EA
:1010C00080916D0180FF02C0AA9A01C0AA98C09BBE
:1010D00004C080916E00806403C080916E008F7B9D
:1010E00080936E00C19B04C080916E00806203C03B
:1010F00080916E008F7D80936E00C29B04C08091B2
:101100006E00806103C080916E008F7E80936E00C0
:10111000AB9B04C080916E00886003C080916E001C
:10112000877F80936E00A89B04C080916E008460CE
:1011300003C080916E008B7F80936E00A99B04C0DA
:1011400080916E00826003C080916E008D7F8093DD
:101150006E00AA9B04C080916E00816003C08091E4
:101160006E008E7F80936E00A0926100809161007E
:1011700080936C0280E3B81609F02BC04FEF5FEF4D
:1011800020E030E0A895F901E759FF4F808148271A
:10119000842F82958427082E869586958025082E93
:1011A000869580258770042E452F86950794879510
:1011B000502D482706948795502548272F5F3F4F8D
:1011C00026303105F9F640936F00509370008092FD
:1011D0006100C092630001C0A8951092620090E087
:1011E00006C0E92FF0E0E859FE4F10829F5F809122
:1011F00060009817B0F3109260008091630088231C
:1012000009F476C0A895DFB6F89421E3B21609F088
:1012100041C0809165008130E9F58091610020E056
:1012200030E090E08C0101501040BC016F5F7F4FB7
:10123000AC014A5F5F4F09C0FA01E21BF30BA759EB
:10124000BF4F8C91E759FF4F8083D801A21BB30B8E
:101250002F5F3F4F2617370779F7809161008A5F2C
:101260008093610080916702809369008091680299
:1012700080936A008091690280936B0080916A027A
:1012800080936C0080916B0280936D0080916C0262
:1012900080936E00929AC3010197F1F780916100EB
:1012A000882329F15D9BFECF809169008CB9A0E075
:1012B000B0E00AC0CD010196FC01E759FF4F208143
:1012C000A759BF4F2C93DC018091610090E0A817D3
:1012D000B90784F3E0916100F0E0E759FF4F108215
:1012E0008091610081508093610010926300DFBEA5
:1012F0009FBEBAC894B580916400981708F4B4C82A
:1013000080916800209166004091670090E08130F4
:1013100009F491E080E0213009F481E0982B892FD5
:1013200090E020E030E0413011F421E030E0822B09
:10133000932B892B09F498C81092620090E006C0A4
:10134000E92FF0E0E859FE4F10829F5F8091600026
:101350009817B0F310926000109268001092660027
:101360001092670081C8A1E21A2EAA1BBB1BFD01C7
:101370000DC0AA1FBB1FEE1FFF1FA217B307E40774
:10138000F50720F0A21BB30BE40BF50B661F771FCC
:10139000881F991F1A9469F76095709580959095AC
:1013A0009B01AC01BD01CF010895DC01CB01FC0123
:1013B000E199FECF06C0FFBBEEBBE09A31960DB2BD
:1013C0000D9241505040B8F70895DC01A40FB51FAD
:1013D0004150504040F0CB01840F951F2E9105D015
:1013E00041505040D8F70895262FE199FECF9FBB7A
:1013F0008EBBE09A01970DB2021631F02DBB0FB6ED
:0E140000F894E29AE19A0FBE0895F894FFCF97
:00000001FF
