:1000000012C021C020C01FC01EC01DC01CC01BC00C
:100010001AC019C018C018C016C050C014C013C0F0
:1000200012C011C010C011241FBECFE5D4E0DEBF46
:10003000CDBF12E0A0E6B0E001C01D92AF36B1071F
:10004000E1F7EBD050C8DCCF1F920F920FB60F92A2
:1000500011248F939F93EF93FF93809162008823E5
:1000600021F5A8955C9B03C081E0809366005B9BB3
:1000700003C081E0809367005A9B03C081E08093B6
:1000800068009CB180916000843658F4E091600073
:10009000F0E0E859FE4F9083809160008F5F80937D
:1000A000600085B5856085BD14BCFF91EF919F917F
:1000B0008F910F900FBE0F901F9018951F920F9267
:1000C0000FB60F9211242F933F938F939F93AF936B
:1000D000BF93EF93FF93A895929A29E933E0C90162
:1000E0000197F1F780916100882321F15D9BFECF9C
:1000F000809169008CB9A0E0B0E00AC0CD01019602
:10010000FC01E759FF4F2081A759BF4F2C93DC0119
:100110008091610090E0A817B90784F3E091610035
:10012000F0E0E759FF4F1082809161008150809389
:10013000610004C09298C9010197F1F7FF91EF9116
:10014000BF91AF919F918F913F912F910F900FBED3
:100150000F901F901895CF93DF93EC014FEF5FEF57
:1001600020E070E0DB0112971CC0A895EC0FFD1F8A
:1001700080814827842F82958427082E869586952E
:100180008025082E869580258770042E452F86951C
:1001900007948795502D4827069487955025482722
:1001A0002F5FE22FF0E0EA17FB07FCF2FE01E60FFB
:1001B000F71F82913196851711F020E007C020E0EB
:1001C00032978081841321E081E02827822FDF91FC
:1001D000CF910895FC012FEF3FEF90E01AC0A89552
:1001E00081912827822F82958227082E86958695D1
:1001F0008025082E869580258770022E232F8695D0
:1002000007948795302D2827069487953025282731
:100210009F5F961720F3C90108952F923F924F9246
:100220005F926F927F928F929F92AF92BF92CF9286
:10023000DF92EF92FF920F931F93DF93CF93CDB78F
:10024000DEB72A970FB6F894DEBF0FBECDBF87B3D7
:10025000807F87BB84B3807F84BB8A9A9298CE01CB
:10026000019660E070E041E050E00DD78981805355
:10027000823010F081E3898381E38A83CE01029684
:1002800067E070E041E050E0FED68A818053823022
:1002900010F080E38A83BA80CE01079663E070E0B5
:1002A00044E050E0F0D68F819885A985BA858036E4
:1002B00029E0920720E0A20720E0B20769F1803C24
:1002C00062E1960760E0A60760E0B60729F1803892
:1002D00075E2970770E0A70770E0B707E9F0803094
:1002E0002BE4920720E0A20720E0B207A9F08030BB
:1002F00066E9960760E0A60760E0B60769F08050FF
:10030000914EA040B04041F080E895E2A0E0B0E01E
:100310008F839887A987BA87599AEF80F8840985CF
:100320001A85A801970173E0220F331F441F551F40
:100330007A95D1F760E070E488E390E082D62150AE
:10034000304040405040BB27A52F942F832F80BDC5
:1003500029B980E6E81689E0F80680E0080780E021
:10036000180711F487EC17C020ECE21622E1F20620
:1003700020E0020720E0120711F484E60CC060E8D8
:10038000E61665E2F60660E0060760E0160711F47F
:1003900082E301C089E180936400CE01059668E0A4
:1003A00070E042E050E06FD68D8180936D028E81C7
:1003B00080936E02CE01039661E070E041E050E070
:1003C00062D68B818053833010F080E38B83CE0123
:1003D000049662E070E041E050E055D68C81815394
:1003E000823010F082E38C838C81813311F08EE8AF
:1003F00001C086E89B81903311F48F7C08C0913353
:1004000011F4806304C0923311F48F7E806280BD4A
:1004100088E18AB98AB1806C8AB978942FE088E142
:1004200090E00FB6F894A89581BD0FBE21BD109243
:10043000620039E9832E33E0932ECC24C3946624E2
:100440006A94762C21E0E22EF12C92E0492E512C78
:100450004C0E5D1E83E0282E312C2C0E3D1EA895DF
:100460001092650094B580916400981708F4B0C5A7
:1004700080916800882309F0ABC5809166008823CD
:1004800009F0A6C580916700882309F0A1C585B54C
:10049000887F85BD14BCAFB6F89480916801833223
:1004A00009F04DC09091690180916D02981709F093
:1004B00046C080916A018F3509F041C080916B017F
:1004C0008534E9F580916C018334C9F580916D0123
:1004D0008834A9F520916E012F3489F5A89588E319
:1004E0008093690094E490936A0089E480936B00A0
:1004F0008FE580936C008DE480936D0020936E00F7
:1005000090936F0082E48093700085E58093710082
:1005100083E58093720080E28093730086E5809388
:10052000740083E3809375008EE28093760080E30D
:10053000809377008AE08093780080E165C08091A5
:1005400068018332D9F49091690180916D02981706
:10055000A9F480916A018F3589F480916B018C3404
:1005600069F480916C018F3449F480916D018F346E
:1005700029F480916E01803509F4FFCF80916801E4
:10058000803409F046C080916901833409F041C08C
:1005900080916A018F34E9F580916B018E34C9F541
:1005A00080916C018634A9F580916D018F3589F5B4
:1005B00080916E01813469F580916F01843449F531
:1005C00080917001843429F580917101823509F59B
:1005D000A89580917301883F50F4809173018D83B9
:1005E000CE01059668E070E041E050E05CD581E422
:1005F0008093690083E480936A008BE480936B00AE
:100600008AE080936C0084E080936100C092630074
:10061000E1C180916801803409F073C08091690163
:10062000833409F06EC080916A018F3409F069C08B
:1006300080916B018E3409F064C080916C01863426
:1006400009F05FC080916D018F3509F05AC080912B
:100650006E01823409F055C080916F01813409F038
:1006600050C080917001853509F04BC080917101B7
:10067000843409F046C0A89580917301803209F452
:10068000A9C180917301813329F480E699E0A0E04B
:10069000B0E02CC080917301823329F480EC92E1A8
:1006A000A0E0B0E023C080917301833329F480E897
:1006B00095E2A0E0B0E01AC080917301843329F480
:1006C00080E09BE4A0E0B0E011C08091730185332D
:1006D00029F480E096E9A0E0B0E008C080917301C1
:1006E000863341F480E091EEA0E0B0E08F839887FC
:1006F000A987BA87CE01079663E070E044E050E036
:1007000075CF80916801803409F04AC080916901F9
:10071000833409F045C080916A018F3409F040C0EC
:1007200080916B018E34E1F580916C018634C1F5C6
:1007300080916D018F35A1F580916E01833581F532
:1007400080916F01843561F5809170018F3441F59E
:1007500080917101803521F580917201823401F51B
:10076000809173018934E1F4809174018435C1F47E
:10077000809175018335A1F4A8958091770180322D
:1007800009F428C180917701813321F080917701AC
:10079000823309F48C83CE01049662E070E024CFAA
:1007A00080916801803409F044C0809169018334EC
:1007B00009F03FC080916A018F34D9F580916B01B7
:1007C0008E34B9F580916C01863499F580916D0174
:1007D0008F3579F580916E01803559F580916F01E3
:1007E000813439F580917001823519F5809171015C
:1007F0008934F9F4809172018435D9F480917301C0
:100800008935B9F4A89580917501803209F4E2C068
:1008100080917501803341F080917501813321F021
:1008200080917501823309F48B83C10161E070E02E
:10083000DBCE80916801803409F049C08091690164
:10084000833409F044C080916A018F3409F03FC0BD
:1008500080916B018E34D9F580916C018634B9F5A5
:1008600080916D018F3599F580916E01843579F510
:1008700080916F01833459F580917001803539F58D
:10088000809171018F3519F5809172018D34F9F4E1
:10089000809173018F34D9F4809174018434B9F458
:1008A00080917501853499F4A89580917701803203
:1008B00009F490C080917701803321F08091770115
:1008C000813309F48A83C20167E070E08DCE8091A4
:1008D0006801803409F07DC070916901733409F0BA
:1008E00078C060916A016F3409F073C080916B0128
:1008F0008E3409F06EC080916C01863409F069C0B5
:10090000E0916D01E43409F064C0A89593E59093FB
:10091000690034E530936A0060936B0050E55093B2
:100920006C0080E280936D0082E480936E0049E465
:1009300040936F0030937000909371002DE32093EB
:1009400072008C81809373009AE0909374005093AE
:10095000750081E48093760082E580937700409370
:1009600078003093790089E580937A0020937B00AA
:100970008B8180937C0090937D0045E440937E00C2
:1009800070937F0088E480938000609381002093BF
:100990008200898180938300909384003093850046
:1009A00070938600509387008FE5809388008DE4D4
:1009B0008093890060938A00E0938B0040938C00C1
:1009C00020938D008A8180938E0090938F0087E220
:1009D0001BCEA89581E3B81641F06091600088E6CF
:1009E00091E0B9DB813009F066C280916300882311
:1009F00009F061C221E3B21689F580916801809304
:100A00006702809169018093680280916A018093F6
:100A1000690280916B0180936A0280916C018093DE
:100A20006B0280916D0180936C0220E030E00BC07E
:100A3000F901E259FE4F8081D901A859BE4F8C932C
:100A400010822F5F3F4F8091600090E02817390798
:100A50007CF38091600086508093600090916801E3
:100A600080916D02981709F063C1909169019230ED
:100A700009F05EC180916A01882309F059C1809113
:100A80006B01883008F054C180916C01882309F013
:100A90004FC180916D01893008F04AC1A895C0927C
:100AA000650080916D028093690090936A00C09206
:100AB0006B0040E020E030E0B6C080916B01B901EE
:100AC000680F711D67307105A1F4989B0AC0C701BA
:100AD000022E02C0880F991F0A94E2F780954823DE
:100AE00008C0C701022E02C0880F991F0A94E2F7BE
:100AF000482B80916B01B901680F711D663071053B
:100B0000A1F4999B0AC0C701022E02C0880F991F49
:100B10000A94E2F78095482308C0C701022E02C05C
:100B2000880F991F0A94E2F7482B80916B01B90155
:100B3000680F711D65307105A1F49A9B0AC0C70149
:100B4000022E02C0880F991F0A94E2F7809548236D
:100B500008C0C701022E02C0880F991F0A94E2F74D
:100B6000482B80916B01B901680F711D64307105CC
:100B7000A1F49B9B0AC0C701022E02C0880F991FD7
:100B80000A94E2F78095482308C0C701022E02C0EC
:100B9000880F991F0A94E2F7482B80916B01B901E5
:100BA000680F711D6330710519F4B39B32C027C003
:100BB00080916B01B901680F711D6230710519F4E4
:100BC000B29B27C01CC080916B01B901680F711DD9
:100BD000CB016130710549F4022E02C0880F991FC4
:100BE0000A94E2F7B19B1CC011C080916B01B9015E
:100BF000680F711D61157105A1F4B09B0AC0C70192
:100C0000022E02C0880F991F0A94E2F780954823AC
:100C100008C0C701022E02C0880F991F0A94E2F78C
:100C2000482B2F5F3F4F80916D0190E028173907C7
:100C30000CF443CF40936C0084E08093610080917A
:100C4000610080936C0270E3B71609F030C1A8957B
:100C500020916900C3018227282F22952827022E80
:100C6000269526952025022E269520252770082ECC
:100C7000892F269507942795902D822706942795EE
:100C800090258227A89520916A008227282F2295F7
:100C90002827022E269526952025022E26952025EA
:100CA0002770082E892F269507942795902D822747
:100CB0000694279590258227A89520916B0082277E
:100CC000282F22952827022E269526952025022EAC
:100CD000269520252770082E892F2695079427957D
:100CE000902D82270694279590258227A8952091FC
:100CF0006C008227282F22952827022E26952695DC
:100D00002025022E269520252770082E892F26952E
:100D100007942795902D8227069427959025822762
:100D200080936D0090936E0086E080936100BFC059
:100D30009091680180916D02981709F0BBC0909165
:100D40006901943009F0B6C080916A01882309F0E6
:100D5000B1C080916B01882309F0ACC080916C0117
:100D6000882309F0A7C080916D01813009F0A2C0ED
:100D7000A8958093650080916D028093690090939F
:100D80006A0082E080936B0010926C0010926D00FC
:100D9000989B04C080916D008F7703C080916D0097
:100DA000806880936D00999B04C080916D008F7B5B
:100DB00003C080916D00806480936D009A9B04C095
:100DC00080916D008F7D03C080916D008062809363
:100DD0006D009B9B04C080916D008F7E03C080914D
:100DE0006D00806180936D00B39B04C080916D00A5
:100DF000877F03C080916D00886080936D00B29BF7
:100E000004C080916D008B7F03C080916D00846071
:100E100080936D00B19B04C080916D008D7F03C0F5
:100E200080916D00826080936D00B09B04C08091C2
:100E30006D008E7F03C080916D00816080936D0096
:100E400025E0209361008091610080936C0260E353
:100E5000B61609F02CC04FEF5FEF20E030E0A89508
:100E6000F901E759FF4F80814827842F8295842715
:100E7000082E869586958025082E86958025877074
:100E8000042E452F869507948795502D4827069464
:100E90008795502548272F5F3F4F25303105F9F6BC
:100EA00040936E0050936F0077E070936100C092A2
:100EB000630001C0A8951092620090E006C0E92F7F
:100EC000F0E0E859FE4F10829F5F80916000981714
:100ED000B0F31092600080916300882309F476C01B
:100EE000A895DFB6F89481E3B81609F041C0809167
:100EF00065008130E9F58091610020E030E090E00C
:100F00008C0101501040BC016F5F7F4FAC014A5F04
:100F10005F4F09C0FA01E21BF30BA759BF4F8C9139
:100F2000E759FF4F8083D801A21BB30B2F5F3F4FC0
:100F30002617370779F7809161008A5F80936100F7
:100F400080916702809369008091680280936A00B3
:100F50008091690280936B0080916A0280936C009B
:100F600080916B0280936D0080916C0280936E0083
:100F7000929AC4010197F1F780916100882329F1C9
:100F80005D9BFECF809169008CB9A0E0B0E00AC003
:100F9000CD010196FC01E759FF4F2081A759BF4FB2
:100FA0002C93DC018091610090E0A817B90784F3CD
:100FB000E0916100F0E0E759FF4F108280916100FD
:100FC00081508093610010926300DFBEAFBE47CABC
:100FD00094B580916400981708F441CA8091680024
:100FE000209166004091670090E0813009F491E023
:100FF00080E0213009F481E0982B892F90E020E0F7
:1010000030E0413011F421E030E0822B932B892B2A
:1010100009F425CA1092620090E006C0E92FF0E0C2
:10102000E859FE4F10829F5F809160009817B0F3DF
:101030001092600010926800109266001092670093
:101040000ECAA1E21A2EAA1BBB1BFD010DC0AA1FCE
:10105000BB1FEE1FFF1FA217B307E407F50720F021
:10106000A21BB30BE40BF50B661F771F881F991F9C
:101070001A9469F760957095809590959B01AC01E5
:10108000BD01CF010895DC01CB01FC01E199FECF48
:1010900006C0FFBBEEBBE09A31960DB20D924150F7
:1010A0005040B8F70895DC01A40FB51F41505040DF
:1010B00040F0CB01840F951F2E9105D04150504038
:1010C000D8F70895262FE199FECF9FBB8EBBE09AFB
:1010D00001970DB2021631F02DBB0FB6F894E29ACB
:0A10E000E19A0FBE0895F894FFCFC7
:00000001FF
