:1000000012C021C020C01FC01EC01DC01CC01BC00C
:100010001AC0A1C018C018C016C050C014C013C068
:1000200012C011C010C011241FBECFE5D4E0DEBF46
:10003000CDBF12E0A0E6B0E001C01D92A638B10726
:10004000E1F763D10EC9DCCF1F920F920FB60F926A
:1000500011248F939F93EF93FF93809162008823E5
:1000600021F5A8955C9B03C081E0809367005B9BB2
:1000700003C081E0809368005A9B03C081E08093B5
:1000800069009CB1809160008F3F59F0E091600061
:10009000F0E0E559FE4F9083809160008F5F809380
:1000A000600085B5856085BD14BCFF91EF919F917F
:1000B0008F910F900FBE0F901F9018951F920F9267
:1000C0000FB60F9211242F933F938F939F93AF936B
:1000D000BF93EF93FF93A895929A29E933E0C90162
:1000E0000197F1F780916100882321F15D9BFECF9C
:1000F00080916C008CB9A0E0B0E00AC0CD010196FF
:10010000FC01E459FF4F2081A459BF4F2C93DC011F
:100110008091610090E0A817B90784F3E091610035
:10012000F0E0E459FF4F108280916100815080938C
:10013000610004C09298C9010197F1F7FF91EF9116
:10014000BF91AF919F918F913F912F910F900FBED3
:100150000F901F9018951F920F920FB60F921124B7
:100160002F933F934F936F937F938F939F9382B778
:10017000845182BF80916A0090916B008F3F9105FE
:1001800050F480916A0090916B00019690936B00FF
:1001900080936A0008C010926B0010926A00C19AA6
:1001A000C29AC39AC49A60916A0070916B004091A0
:1001B000760220917702942F80E030E0822B932BFF
:1001C0006817790708F0C19860916A0070916B0018
:1001D0004091780220917902942F80E030E0822BC8
:1001E000932B6817790708F0C29860916A007091A4
:1001F0006B0040917A0220917B02942F80E030E0E6
:10020000822B932B6817790708F0C39860916A00D6
:1002100070916B0040917C0220917D02942F80E0D0
:1002200030E0822B932B6817790708F0C4989F91D0
:100230008F917F916F914F913F912F910F900FBEB2
:100240000F901F901895CF93DF93EC014FEF5FEF66
:1002500020E070E0DB0112971CC0A895EC0FFD1F99
:1002600080814827842F82958427082E869586953D
:100270008025082E869580258770042E452F86952B
:1002800007948795502D4827069487955025482731
:100290002F5FE22FF0E0EA17FB07FCF2FE01E60F0A
:1002A000F71F82913196851711F020E007C020E0FA
:1002B00032978081841321E081E02827822FDF910B
:1002C000CF910895FC012FEF3FEF90E01AC0A89561
:1002D00081912827822F82958227082E86958695E0
:1002E0008025082E869580258770022E232F8695DF
:1002F00007948795302D2827069487953025282741
:100300009F5F961720F3C90108952F923F924F9255
:100310005F926F927F928F929F92AF92BF92DF9285
:10032000EF92FF920F931F93DF93CF93CDB7DEB77A
:100330002A970FB6F894DEBF0FBECDBF84B3807F7F
:1003400084BB87B38E6187BB88B3817E88BB8A9A62
:10035000929887B18F7387B986B1856C86B982E030
:1003600083BF89B7816089BF81EF82BFCE010196CB
:1003700060E070E041E050E044D7898180538230F2
:1003800010F081E3898381E38A83CE01029667E0DE
:1003900070E041E050E035D78A818053823010F020
:1003A00080E38A83DA80CE01079663E070E044E060
:1003B00050E027D78F819885A985BA85803629E0B6
:1003C000920720E0A20720E0B20769F1803C22E119
:1003D000920720E0A20720E0B20729F1803825E249
:1003E000920720E0A20720E0B207E9F080302BE47A
:1003F000920720E0A20720E0B207A9F0803026E9AA
:10040000920720E0A20720E0B20769F08050914EE9
:10041000A040B04041F080E895E2A0E0B0E08F83DA
:100420009887A987BA87599AEF80F88409851A8531
:10043000A801970193E0220F331F441F551F9A957F
:10044000D1F760E070E488E390E0B9D62150304005
:1004500040405040BB27A52F942F832F80BD29B942
:1004600080E6E81689E0F80680E0080780E01807D3
:1004700011F487EC17C0A0ECEA16A2E1FA06A0E09E
:100480000A07A0E01A0711F484E60CC0B0E8EB16E6
:10049000B5E2FB06B0E00B07B0E01B0711F482E306
:1004A00001C089E180936400CE01059668E070E0A8
:1004B00042E050E0A6D68D81809384028E818093A5
:1004C0008502CE01039661E070E041E050E099D6EC
:1004D0008B818053833010F080E38B83CE010496B0
:1004E00062E070E041E050E08CD68C818153823034
:1004F00010F082E38C838C81813311F08EE801C08F
:1005000086E89B81903311F48F7C08C0913311F4FD
:10051000806304C0923311F48F7E806280BD88E1D5
:100520008AB98AB1806C8AB978942FE088E190E02A
:100530000FB6F894A89581BD0FBE21BD1092620040
:1005400009E9802E03E0902E12E0A12EB12CB2E03A
:100550006B2E712C6C0E7D1EA3E04A2E512C4C0E7E
:100560005D1EF4E02F2E312C2C0E3D1EA8959FB75A
:10057000F894369957C080916600882339F484B185
:1005800080936B0285B180936A023AC080916600C5
:10059000813071F484B180936D0285B180936C02D7
:1005A000809166008F5F809366003898399A39C0D1
:1005B00080916600823039F484B180936F0285B1F6
:1005C00080936E021DC080916600833079F484B1FF
:1005D0008093710285B180937002809166008F5F75
:1005E00080936600389839983A9A1BC080916600CB
:1005F000843069F484B18093730285B18093720270
:10060000809166008F5F80936600389A0AC084B13B
:100610008093750285B180937402109266003898B9
:100620003A98369A9FBF1092650094B58091640005
:10063000981708F49AC580916900882309F095C538
:1006400080916700882309F090C580916800882315
:1006500009F08BC585B5887F85BD14BCEFB6F894CD
:1006600080916B01833209F056C090916C018091AA
:100670008402981709F04FC080916D018F3509F001
:100680004AC080916E01853409F045C080916F01A8
:10069000833409F040C0809170018834E1F53091D5
:1006A00071013F34C1F5A89594E390936C0024E464
:1006B00020936D0089E480936E0090936F0082E533
:1006C00080937000309371008FE5809372008DE409
:1006D00080937300309374002093750082E48093BC
:1006E000760085E58093770083E58093780080E24B
:1006F0008093790086E580937A0083E380937B0082
:100700008EE280937C0080E380937D008AE080937A
:100710007E0083E147C280916B018332D9F49091CE
:100720006C01809184029817A9F480916D018F3536
:1007300089F480916E018C3469F480916F018F345B
:1007400049F4809170018F3429F4809171018035D2
:1007500009F4FFCF80916B01803491F580916C0199
:10076000833471F580916D018F3451F580916E0164
:100770008E3431F580916F01863411F580917001CE
:100780008F35F1F4809171018134D1F4809172013F
:100790008434B1F480917301843491F480917401B4
:1007A000823571F4A89580917601883F08F06BC17D
:1007B000809176018D83CE01059668E070E060C17E
:1007C00080916B01803409F073C080916C01833497
:1007D00009F06EC080916D018F3409F069C080917D
:1007E0006E018E3409F064C080916F01863409F087
:1007F0005FC0809170018F3509F05AC080917101FE
:10080000823409F055C080917201813409F050C0E2
:1008100080917301853509F04BC080917401843457
:1008200009F046C0A89580917601803209F4BFC1D5
:1008300080917601813329F480E699E0A0E0B0E070
:100840002CC080917601823329F480EC92E1A0E003
:10085000B0E023C080917601833329F480E895E2EB
:10086000A0E0B0E01AC080917601843329F480E0E2
:100870009BE4A0E0B0E011C080917601853329F4BB
:1008800080E096E9A0E0B0E008C080917601863370
:1008900041F480E091EEA0E0B0E08F839887A987D3
:1008A000BA87CE01079663E070E044E050E0EAC00A
:1008B00080916B01803409F049C080916C018334D0
:1008C00009F044C080916D018F3409F03FC08091E0
:1008D0006E018E34D9F580916F018634B9F580911F
:1008E00070018F3599F580917101833579F580918B
:1008F0007201843559F5809173018F3439F58091F7
:100900007401803519F5809175018234F9F4809174
:1009100076018934D9F4809177018435B9F48091D6
:100920007801833599F4A89580917A01803209F491
:100930003EC180917A01813321F080917A01823326
:1009400009F48C83C10162E070E09AC080916B0170
:10095000803409F044C080916C01833409F03FC0B9
:1009600080916D018F34D9F580916E018E34B9F587
:1009700080916F01863499F5809170018F3579F5FA
:1009800080917101803559F580917201813439F57A
:1009900080917301823519F5809174018934F9F4DD
:1009A000809175018435D9F4809176018935B9F447
:1009B000A89580917801803209F4F9C0809178017E
:1009C000803341F080917801813321F0809178016A
:1009D000823309F48B83C20161E070E051C08091E1
:1009E0006B01803409F05DC080916C01833409F0A3
:1009F00058C080916D018F3409F053C080916E0111
:100A00008E3409F04EC080916F01863409F049C0E0
:100A1000809170018F3509F044C080917101843557
:100A200009F03FC0809172018334D9F58091730140
:100A30008035B9F5809174018F3599F580917501F4
:100A40008D3479F5809176018F3459F58091770155
:100A5000843439F580917801853419F5A895809111
:100A60007A01803209F4A3C080917A01803321F0A9
:100A700080917A01813309F48A83C30167E070E0D1
:100A800041E050E0CED381E480936C0083E4809316
:100A90006D008BE480936E008AE080936F0084E0A9
:100AA00081C080916B01803409F081C070916C012C
:100AB000733409F07CC060916D016F3409F077C028
:100AC00080916E018E3409F072C080916F0186347E
:100AD00009F06DC0E0917001E43409F068C0A89598
:100AE00093E590936C0034E530936D0060936E0055
:100AF00050E550936F0080E28093700082E4809311
:100B0000710049E440937200309373009093740035
:100B10002DE3209375008C81809376009AE090936A
:100B200077005093780081E48093790082E5809388
:100B30007A0040937B0030937C0089E580937D00B0
:100B400020937E008B8180937F009093800045E40A
:100B5000409381007093820088E4809383006093C7
:100B6000840020938500898180938600909387007C
:100B7000309388007093890050938A008FE58093AA
:100B80008B008DE480938C0060938D00E0938E0049
:100B900040938F00209390008A81809391009093DE
:100BA000920087E28093610081E08093630081E39B
:100BB000D81641F0609160008BE691E044DB813013
:100BC00009F046C280916300882309F041C2A1E385
:100BD000DA1691F580916B0180937E0280916C0111
:100BE00080937F0280916D018093800280916E01DD
:100BF0008093810280916F018093820280917001C5
:100C00008093830220E030E00BC0F901EF58FE4FE3
:100C10008081D901A559BE4F8C9310822F5F3F4F21
:100C20008091600090E0281739077CF38091600084
:100C30008650809360000CC290916B018091840279
:100C4000981709F0B2C090916C01943009F0ADC0D2
:100C500080916D01882309F0A8C080916E01809178
:100C60006E01863008F0A1C080916F01882309F0E1
:100C70009CC080917001882309F497C08091700115
:100C8000873008F092C0A89581E08093650080913C
:100C9000840280936C0090936D008091700190E0CD
:100CA000880F991F80936E0030916E013BC03630E3
:100CB00010F580916E01FA01E81BF109EE0FFF1F9C
:100CC000CA01880F991FDC01A659BD4F2C91E1592B
:100CD000FF4F208320916E01F501E21BF109E40F23
:100CE000F51FEE0FFF1F85599D4FDC018C91E459D4
:100CF000FF4F808316C080916E01FA01E81BF10955
:100D0000EE0FFF1FE159FF4F108280916E01F50138
:100D1000E81BF109E40FF51FEE0FFF1FE459FF4F29
:100D200010823F5F432F50E08091700120916E014F
:100D300090E0820F911D481759070CF4B8CF8091AD
:100D40007001880F8D5F80936100809161008093B6
:100D50008302B0E3DB1609F076C1909161004FEF9A
:100D60005FEF20E030E01EC0A895F901E459FF4F85
:100D700080814827842F82958427082E8695869522
:100D80008025082E869580258770042E452F869510
:100D900007948795502D4827069487955025482716
:100DA0002F5F3F4F291700F3B8C090916B018091DE
:100DB0008402981709F0C1C090916C01933009F03A
:100DC000BCC080916D01882309F0B7C080916E018D
:100DD00080916E01843008F0B0C080916F0188234B
:100DE00009F0ABC080917001882309F4A6C08091FE
:100DF0007001853008F0A1C0A89581E0809365005E
:100E00008091840280936C0090936D0080917001BA
:100E100090E0880F991F80936E0030916E013BC067
:100E2000343010F580916E01FA01E81BF109EE0FE4
:100E3000FF1FCA01880F991FDC01AA58BD4F2C91D2
:100E4000E159FF4F208320916E01F501E21BF1096A
:100E5000E40FF51FEE0FFF1F89589D4FDC018C91A9
:100E6000E459FF4F808316C080916E01FA01E81BA0
:100E7000F109EE0FFF1FE159FF4F108280916E01C3
:100E8000F501E81BF109E40FF51FEE0FFF1FE45910
:100E9000FF4F10823F5F432F50E0809170012091FF
:100EA0006E0190E0820F911D481759070CF4B8CFDE
:100EB00080917001880F8D5F809361008091610047
:100EC00080938302B0E3DB1609F0BDC0909161000E
:100ED0004FEF5FEF20E030E01EC0A895F901E45924
:100EE000FF4F80814827842F82958427082E86957E
:100EF00086958025082E869580258770042E452F9F
:100F0000869507948795502D4827069487955025F8
:100F100048272F5F3F4F291700F3E0916100F0E071
:100F2000E459FF4F4083E0916100F0E0E359FF4F47
:100F30005083809161008E5F84C090916B0180919D
:100F40008402981709F083C090916C01963009F0E3
:100F50007EC080916D01882309F079C080916E0177
:100F600080916E01843008F072C0A89581E0809372
:100F700065008091840280936C0090936D001092C4
:100F80006E0080916E0180936F00E0916E01F0E041
:100F9000EE0FFF1F80916F01EA58FD4F8083E091B3
:100FA0006E01F0E0EE0FFF1F80917001E958FD4FD8
:100FB0008083E0916E01F0E0EE0FFF1FEA58FD4FD5
:100FC000808180937000E0916E01F0E0EE0FFF1FD2
:100FD000E958FD4F8081809371009093610080916A
:100FE00061008093830220E3D21609F02CC04FEFFA
:100FF0005FEF20E030E0A895F901E459FF4F8081D0
:101000004827842F82958427082E869586958025EB
:10101000082E869580258770042E452F8695079487
:101020008795502D482706948795502548272F5F90
:101030003F4F26303105F9F640937200509373000C
:1010400088E08093610081E08093630001C0A895EF
:101050001092620090E006C0E92FF0E0E559FE4FE3
:1010600010829F5F809160009817B0F3109260002B
:1010700080916300882309F476C0A895FFB6F894A0
:1010800081E3D81609F041C0809165008130E9F50F
:101090008091610020E030E090E08C010150104030
:1010A000BC016F5F7F4FAC014A5F5F4F09C0FA011F
:1010B000E21BF30BA459BF4F8C91E459FF4F80837F
:1010C000D801A21BB30B2F5F3F4F2617370779F7C5
:1010D000809161008A5F8093610080917E0280939D
:1010E0006C0080917F0280936D00809180028093DC
:1010F0006E008091810280936F00809182028093C4
:1011000070008091830280937100929AC4010197CC
:10111000F1F780916100882329F15D9BFECF8091DA
:101120006C008CB9A0E0B0E00AC0CD010196FC01D2
:10113000E459FF4F2081A459BF4F2C93DC018091CB
:10114000610090E0A817B90784F3E0916100F0E036
:10115000E459FF4F108280916100815080936100BB
:1011600010926300FFBEEFBE01CA94B58091640087
:10117000981708F4FBC980916900813049F080918B
:101180006700813029F080916800813009F0EEC954
:101190001092620090E006C0E92FF0E0E559FE4FA2
:1011A00010829F5F809160009817B0F310926000EA
:1011B000109269001092670010926800D7C9A1E2EE
:1011C0001A2EAA1BBB1BFD010DC0AA1FBB1FEE1FC1
:1011D000FF1FA217B307E407F50720F0A21BB30B0C
:1011E000E40BF50B661F771F881F991F1A9469F788
:1011F00060957095809590959B01AC01BD01CF01E4
:101200000895DC01CB01FC01E199FECF06C0FFBBD4
:10121000EEBBE09A31960DB20D9241505040B8F7B6
:101220000895DC01A40FB51F4150504040F0CB01A0
:10123000840F951F2E9105D041505040D8F7089546
:10124000262FE199FECF9FBB8EBBE09A01970DB28E
:10125000021631F02DBB0FB6F894E29AE19A0FBE58
:061260000895F894FFCF91
:00000001FF
